:1003AF00758F01C2A7C2A6C2A5C2A47FE87E0312A1
:1003BF000003D2A6D2A5D2A7D2A41203D0D2AF8067
:0103CF00FE2F
:1000030053890F438910C2AB758DF4758B3DC28F35
:10001300D28E308FFDC28EEF1F70011ED3EF94007E
:06002300EE940050E32200
:1003D00075C80475CDF475CC3D75CBF475CA3DD2A6
:0403E000ADD2CA22AE
:0303F500011001F3
:03002B0002002EA2
:10002E00C0E0C0F0C083C082C0D075D000C000C098
:10003E0001C002C003C004C005C006C007C2CFE5A0
:10004E0010B4090040030202D290005EF828287313
:10005E000200790200B40200DD020118020153020F
:10006E0001BE02022002029102025AE50F2401F59E
:10007E000FE4350EF50EE4350DF50DE4350CF50CEB
:10008E00C2A4D2A7D2A6D2A5E47FD07E07FDFCAB38
:10009E000FAA0EA90DA80CC31203E450030202D23C
:1000AE007510030202C6E50F2401F50FE4350EF5B7
:1000BE000EE4350DF50DE4350CF50CD2A4C2A7D225
:1000CE00A6D2A530A0030202D27510020202C6E526
:1000DE000F2401F50FE4350EF50EE4350DF50DE4A4
:1000EE00350CF50CD2A4D2A7D2A6C2A5E47FD07E41
:1000FE0007FDFCAB0FAA0EA90DA80CC31203E4500A
:10010E00030202D27510000202C6E50F2401F50F9C
:10011E00E4350EF50EE4350DF50DE4350CF50CC297
:10012E00A4D2A7C2A6D2A5E47F887E13FDFCAB0F96
:10013E00AA0EA90DA80CC31203E450030202D27535
:10014E0010040202C6E50F2401F50FE4350EF50E7C
:10015E00E4350DF50DE4350CF50CE50B2401F50B2E
:10016E00E4350AF50AE43509F509E43508F508E43D
:10017E007FF47E01FDFCAB0BAA0AA909A808C312E5
:10018E0003E4400E750B00750A0075090075080032
:10019E00B2A6E47F987E3AFDFCAB0FAA0EA90DA87D
:1001AE000CC31203E450030202D27510010202C600
:1001BE00E50F2401F50FE4350EF50EE4350DF50DC2
:1001CE00E4350CF50CE50B2401F50BE4350AF50AC4
:1001DE00E43509F509E43508F508D2A7D2A6D2A56B
:1001EE00E47FF47E01FDFCAB0BAA0AA909A808C3A3
:1001FE001203E4400E750B00750A007509007508B0
:10020E0000B2A430A0030202D230A0FD751001028C
:10021E0002C6E50F2401F50FE4350EF50EE4350D9B
:10022E00F50DE4350CF50CC2A4D2A7D2A6D2A5E4E6
:10023E007FE87E03FDFCAB0FAA0EA90DA80CC3121E
:10024E0003E450030202D2751008806CE50F2401FE
:10025E00F50FE4350EF50EE4350DF50DE4350CF520
:10026E000CD2A4C2A7D2A6D2A5E47FE87E03FDFCE1
:10027E00AB0FAA0EA90DA80CC31203E440467510CD
:10028E00078035E50F2401F50FE4350EF50EE43544
:10029E000DF50DE4350CF50CD2A4D2A7D2A6C2A54D
:1002AE00E47FE87E03FDFCAB0FAA0EA90DA80CC3DC
:1002BE001203E4400F751006750F00750E00750DD4
:1002CE0000750C0020A10F751005750F00750E003E
:1002DE00750D00750C0020A20F751008750F0075B6
:1002EE000E00750D00750C0020A30F751001750F13
:1002FE0000750E00750D00750C00D007D006D005E8
:10030E00D004D003D002D001D000D0D0D082D08380
:05031E00D0F0D0E03238
:03000000020323D5
:0C032300787FE4F6D8FD75811002036AB3
:1003E400EB9FF5F0EA9E42F0E99D42F0E89C45F06F
:0103F40022E6
:10032F000203AFE493A3F8E493A34003F68001F232
:10033F0008DFF48029E493A3F85407240CC8C333CF
:10034F00C4540F4420C8834004F456800146F6DF9E
:10035F00E4800B01020408102040809003F5E47E36
:10036F00019360BCA3FF543F30E509541FFEE49393
:10037F00A360010ECF54C025E060A840B8E493A35A
:10038F00FAE493A3F8E493A3C8C582C8CAC583CA85
:10039F00F0A3C8C582C8CAC583CADFE9DEE780BE3D
:0103F8000004
:00000001FF
